:1000000002308A00352A00000A108A100A1182077D
:100010008034C0349434D434202269376827541093
:10002000C42459100000A022EC32633AF237EE34B7
:1000300063100001202269376810CE33F53C653724
:1000400020000830F8000430F700F70B252887114E
:10005000A0112008831687000330F700F70B2E2825
:100060008312A90D0712031C3B28201620088316B3
:1000700087003F2883122012200883168700000083
:100080008312A0152008831687008312871D462837
:10009000F80B23280430F700F70B4C288711A01128
:1000A000200883168700000083122016200883167C
:1000B00087000330F700F70B5B280330F700F70BDE
:1000C0005F288312A0152008831687008312871DDE
:1000D0006728F8010330F700F70B6C28071A78142B
:1000E0008711A0112008831687008312071220129F
:1000F000200883168700831208000330AA02031C1D
:100100008B282A3084008313000803198B28892840
:100110008928800B882808002408F039A7002408C3
:100120000F39A800A80E27080438A50028080438AD
:10013000A60020162008831687000430F700F70B6E
:100140009F288312A0152008831687000330F7002C
:10015000F70BA828831207122012200883168700A5
:100160000430F700F70BB22883128711A011200882
:10017000831687007E308312A90021202508A9005C
:1001800021202708A90021202608A90021202808CD
:10019000A90021200830A900212020122008831660
:1001A000870000008312A0152008831687008312A1
:1001B000871DD8280430F700F70BDC28DF28000063
:1001C00020162008831687000430F700F70BE62876
:1001D00002308312A900DB30AA007D20A90BEB2896
:1001E0000800213084008313000803190429063015
:1001F000F800F701F70BFA28F80BF9287B30F70025
:10020000F70B0029800BF72808002016200883161A
:1002100087000430F700F70B0B298312A015200884
:10022000831687000330F700F70B14298312071297
:1002300020122008831687000430F700F70B1E29D0
:1002400083128711A0112008831687007E30831245
:10025000A90021202C30A90021202830A90021202C
:100260002830A4008C200130A100F1200C30A40023
:100270008C200230A100F1200630A4008C20023036
:10028000A100F120201220088316870000008312AD
:10029000A0152008831687008312871D4D2904307E
:1002A000F700F70B51295429000020162008831667
:1002B00087000430F700F70B5B2902308312A1009E
:1002C000DB30AA007D20A10B60298A110A124C2A7A
:1002D0002408F039A70024080F39A800A80EA70A9F
:1002E000A80A27080538A50028080538A600201602
:1002F0002008831687000430F700F70B7D2983124E
:10030000A0152008831687000330F700F70B862915
:100310008312071220122008831687000430F7008A
:10032000F70B902983128711A011200883168700EC
:100330007E308312A90021202508A900212027084A
:10034000A90021202608A90021202808A900212091
:100350000830A90021202012200883168700000001
:100360008312A0152008831687008312871DB629E3
:100370000430F700F70BBA29BD2900002016200829
:10038000831687000430F700F70BC429023083126C
:10039000A900DB30AA007D20A90BC92908000B08A1
:1003A000A1008B13831603178C170C140000000098
:1003B00083120313A11B8B1703170C087F39031932
:1003C000232A0313A10003170D080313A200031728
:1003D0000F080313A3002108A400682122080317B3
:1003E0008D000313230803178F0003130B08A400C9
:1003F0008B13831603178C170C1400000000831254
:100400000313A41B8B1703170C0D0E0D7F39031953
:10041000232A0313A10003170D080313A2000317D7
:100420000F080313A3002108A40068212208031762
:100430008D000313230803178F008D0A03198F0AF9
:100440000313CF29031703130800210804202207F0
:10045000A300A4008C200230A300DB30AA007D2082
:10046000A30B2D2A8A110A12642A03081F3983005C
:10047000FF30A000831603170908C0398900031351
:100480001F129F1200300317880083128701880112
:1004900089018313031305298030A4008C200C30BC
:1004A00003178D0000308F000313CF21C030A4004C
:1004B0008C20133003178D0000308F000313CF21E1
:1004C0000230A100A201252A1A3003178D00003046
:1004D0008F000313CF213230A100F1204B2A63009B
:04400E00E22CFF3F62
:00000001FF
;PIC16F887
;CRC=2DA1  CREATED="16-Thg1-22 21:39"
